:020000022000DC
:10600000000004205D0F03009D0F03009F0F03009D
:10601000A10F0300A30F0300A50F03000000000061
:10602000000000000000000000000000D90E030086
:10603000A90F030000000000F90E0300AD0F0300DC
:10604000FD100300AF0F0300BD250300AF0F0300D9
:10605000AF0F0300AF0F030069EA0200AF0F0300A8
:10606000AF0F0300AF0F0300AF0F0300AF0F03002C
:10607000AF0F0300AF0F0300AF0F0300AF0F03001C
:10608000AF0F0300290C0300AF0F0300AF0F030095
:10609000AF0F0300AF0F0300AF0F0300AF0F0300FC
:1060A000AF0F0300AF0F0300AF0F0300AF0F0300EC
:1060B000AF0F0300AF0F030000000000000000005E
:1060C000AF0F0300AF0F0300AF0F03001116030063
:1060D000AF0F0300AF0F0300AF0F030049A302008F
:1060E00009260300AF0F0300AF0F030000000000FC
:1060F00000000000AF0F030000000000891603003D
:10610000000000000000000000000000000000008F
:10611000000000000000000000000000000000007F
:10612000000000000000000000000000000000006F
:10613000000000000000000000000000000000005F
:10614000000000000000000000000000000000004F
:10615000000000000000000000000000000000003F
:10616000000000000000000000000000000000002F
:10617000000000000000000000000000000000001F
:10618000000000000000000000000000000000000F
:1061900000000000000000000000000000000000FF
:1061A00000000000000000000000000000000000EF
:1061B00000000000000000000000000000000000DF
:1061C00000000000000000000000000000000000CF
:1061D00000000000000000000000000000000000BF
:1061E00000000000000000000000000000000000AF
:1061F000000000000000000000000000000000009F
:10620000F1EE103A43F08073E1EE103A704700BFB0
:1062100010B5054C237833B9044B13B10448AFF3E0
:1062200000800123237010BD2463002000000000C3
:10623000686D030008B5034B1BB103490348AFF376
:10624000008008BD0000000028630020686D030086
:10625000154B002B08BF134B9D46A3F5803A002138
:106260008B460F461348144A121A0DF027FA0F4BAB
:10627000002B00D098470E4B002B00D098470020F1
:10628000002104000D000D48002802D00C48AFF397
:1062900000800DF0B7F9200029000AF0B7FE0DF0DC
:1062A0008BF900BF0000080000000420000000007F
:1062B000000000002463002018850020000000007A
:1062C00000000000014B00209B6B1847186503007D
:1062D00010B50649064808F0C5F9064B064A9B6BFF
:1062E0000121BDE81040002011701847CC63030065
:1062F00074670020186503000460002010B506498B
:10630000064808F0AFF9064B064A9B6B0121BDE831
:106310001040002011701847D863030074670020F4
:10632000186503000460002010B50549054808F011
:1063300099F9054BBDE810409B6B0020184700BF42
:10634000E863030074670020186503000000000084
:106350002DE9F0475C488AB04FF4E131814603F003
:10636000A1FC08F0C3FB4FF0000A804640F6B736A8
:1063700000270EE008F0BAFB0023B0EB080463EB43
:106380000A05A64277EB05034FF0640006DB08F030
:10639000B9FB484603F09EFC0028EBD04B494A4825
:1063A0004B4D4C4E4C4F08F05DF94C49464808F0B7
:1063B00059F94B49444808F055F94A49424808F010
:1063C000F3F800F0DDFA48493F4808F04BF9DFF8F0
:1063D00044C1464A464BDFF840E146493A48C5F8D1
:1063E00000E00024C5E9017CC5E90323EC6108F065
:1063F000DBF83368284698473B49334808F032F9C0
:1064000033693D489847326A059401254FF00908E1
:106410004FF0080940F6B833174608932246234642
:106420002846CDE90644039404950195CDF80890DB
:10643000CDF800800E21B847F36942461F46284632
:106440002B462146CDE90845CDE90644CDE9044572
:10645000CDE90244CDE90049B84728491A4808F077
:10646000A3F8B36B204698471F49174808F0FAF87D
:106470002349154808F0F6F82249134808F0F2F8C5
:106480002149114808F090F89FED0D0B02210E48AC
:1064900008F0B8F81D490C4808F086F841460A2271
:1064A000094808F0BBF91A49074808F0DBF8144915
:1064B00005480AB0BDE8F04708F0D4B8AFF3008053
:1064C0000000000000208B4074670020F46303008C
:1064D0000864002018650300FD62020010640300D8
:1064E00030640300406403004C640300C562020092
:1064F000296302005064030000A1BC336064030000
:106500006C64030080640300946403009C640300D3
:10651000A86403003D660200D1620200F8B504469B
:106520000D46002900F08580481E2044611E4FF66C
:10653000FF7341F2210228E05B009EB21BB2002BE8
:106540002FDB7600B3B236B2002E30DB5E00B3B282
:1065500036B2002E31DB5E00B3B236B2002E32DB33
:106560005E00B3B236B2002E33DB5E00B3B236B299
:10657000002E34DB5E00B3B236B2002EACBF5B003F
:1065800082EA430388429BB22ED011F8016F83EA5E
:1065900006231E04D0D582EA430633B2002BB6B2DE
:1065A000CFDA82EA46031EB2002E9BB2CEDA82EA2E
:1065B00043031EB2002E9BB2CDDA82EA43031EB221
:1065C000002E9BB2CCDA82EA43031EB2002E9BB2AD
:1065D000CBDA82EA43031EB2002E9BB2CADA82EA09
:1065E00043031EB29BB2C8E71F0ADEB2AA211248BB
:1065F00003F0A8FAC5F307210F4803F0A3FAE9B2A4
:106600000D4803F09FFA2A4621460B4803F076FA1C
:106610003946094803F096FA3146074803F092FAE2
:106620000548552103F08EFABDE8F840024803F012
:1066300057BAFF263746D9E774670020F0B54F1EDA
:10664000C72F83B007D9144B9B6B0193002003B075
:10665000BDE8F04018471D4616460C46FFF75EFFA2
:106660000E490F4807F0A0FF21460A220C4808F007
:10667000D5F80C490A4807F097FF31460A22084826
:1066800008F0CCF80849064807F08EFF29460A2290
:10669000034808F09DF8D6E718650300B8640300C6
:1066A00074670020C0640300D06403002DE9F0414A
:1066B0008F4E904D904FDFF86882284603F0D4F952
:1066C0000446C8B1284603F0F5F9C4B208F00EFA42
:1066D00033783860062BF0D8DFE803F0403A2E20FC
:1066E0001A130400552C4BD000232846337003F0B6
:1066F000BBF904460028E5D13378002B36D1BDE83C
:10670000F0817E4B18880622204318803270D4E72F
:106710007A4A2002052310803370CEE7784A794800
:106720001388B8F80010C45401339BB29942138007
:10673000C3D804233370C0E7B8F800002043C8284A
:10674000A8F80000D0D80028F3D003233370B4E7B2
:1067500020020223A8F800003370AEE7AA2CACD1C7
:10676000674A0021012311803370A6E708F0BEF9C3
:10677000614B1B68C01A642888BF3470BDE8F08183
:10678000B8F80010002900F086805E484FF6FF73CD
:106790000C1841F2210241E05B001FFA83FC1BB29E
:1067A000002B4ADB4FEA4C0C1FFA8CF30FFA8CFCDF
:1067B000BCF1000F49DB4FEA430C1FFA8CF30FFAD0
:1067C0008CFCBCF1000F48DB4FEA430C1FFA8CF342
:1067D0000FFA8CFCBCF1000F47DB4FEA430C1FFAA9
:1067E0008CF30FFA8CFCBCF1000F46DB4FEA430C34
:1067F0001FFA8CF30FFA8CFCBCF1000F45DB4FEA5B
:10680000430C1FFA8CF30FFA8CFCBCF1000FACBFE9
:106810005B0082EA430384429BB23ED010F801CB76
:1068200083EA0C2313F4004FB6D082EA430C0FFA2C
:106830008CF3002B1FFA8CFCB4DA82EA4C030FFABB
:1068400083FCBCF1000F9BB2B5DA82EA43030FFA76
:1068500083FCBCF1000F9BB2B6DA82EA43030FFA65
:1068600083FCBCF1000F9BB2B7DA82EA43030FFA54
:1068700083FCBCF1000F9BB2B8DA82EA43030FFA43
:1068800083FCBCF1000F9BB2B9DA82EA43030FFA32
:1068900083FC9BB2B9E74FF6FF73184A12889A42FD
:1068A000194A0BD0137823B91849284607F0DAFEA5
:1068B0001AE71749284607F0D5FE15E71378002B8D
:1068C000F0D0144B0F48DB6AC9B20024147098470B
:1068D0001149284607F068FEB8F800100A22284639
:1068E00007F09CFF0D49284607F0BCFEFCE600BF00
:1068F0002C64002074670020306400202A6400208B
:10690000346400204063002004600020F46403002D
:106910000065030018650300D8640300E864030001
:106920002864002008B5034B5B6F9847BDE808401A
:10693000FFF7BCBE1865030000B583B02C2300939D
:10694000044905482B232D2202F0FAFE03B05DF81E
:1069500004FB00BF003002403864002008B5064C3C
:10696000064D20684FF0FF3108F04AFD0128F8D1AC
:106970002B6F9847F5E700BF80640020186503007F
:1069800070B5294B2A242F229C605A61262540F29B
:1069900001122B202D212C2484B05D60D860196158
:1069A000DC619A624FF0FF3025212E25022601245A
:1069B000C3E908019D611E6083F82C40002500F0AA
:1069C00067F800F077FB32460DF10E014FF4E860F6
:1069D000ADF80E5000F04CFDBDF80E204FF6FF73E1
:1069E0009A4202D1204604B070BD294603222046B7
:1069F00008F0D4F80D4E2B462A462946306008F0A0
:106A00000FF930680A2108F0FBFC094A0192094994
:106A100000942B464FF48052074809F00BF8B0FA67
:106A200080F0400904B070BD4C64002080640020F8
:106A30007C6400200C6503005D690200074B4FF485
:106A4000E06110B4002002244FF0FF3299851C60F1
:106A5000C3E908225DF8044B986270474C6400203B
:106A6000704700BF704700BF014802F09BBE00BFE7
:106A70003864002038B5054CA4F1500554F8083DA1
:106A80001B6820469847AC42F8D138BDE06400202E
:106A9000704700BF30B5224C257883B0ADB1637824
:106AA0007BB3A3787BB3E3787BB323797BB3637940
:106AB0007BB3A3797BB3E3797BB3237A23B1637A86
:106AC000092513B103B030BD0825437801610122C7
:106AD00062550570134853B100230A4600EBC50008
:106AE000009342F210710BF09BF803B030BD00929E
:106AF00000EBC5000A4642F210710BF091F803B0AA
:106B000030BD0125E1E70225DFE70325DDE70425A8
:106B1000DBE70525D9E70625D7E70725D5E700BF39
:106B2000846400209064002010B5064C037804EBC8
:106B3000C30420460BF0C0F82046BDE810400BF01F
:106B400087B800BF90640020024B007803EBC000C0
:106B50000BF0B2B89064002010B4054C0378054ADD
:106B600004EBC3005DF8044B42F823100BF0D0B8DF
:106B700090640020E064002007F0B8BF10B5044620
:106B800007F0B4FF001B10BD38B5084C04F15005E8
:106B9000204608340BF03CF8AC42F9D1BDE838404F
:106BA000034A044900200CF0CFBC00BF90640020D1
:106BB00000600020756A02002DE9F04FDFF82483A1
:106BC000C54C98F8003083B00646002B00F0BA8020
:106BD000C24D002E61D040F2E93603E007F092FF8B
:106BE000013E04D0A0690BF0FBF90128F6D0A068A3
:106BF00000210BF0D7F995E80600B94802F016FE1F
:106C00001D21B74802F07AFE0921B54802F076FE50
:106C10002021B34802F072FE0021B14802F06EFE5E
:106C20000021AF4802F06AFE0746AD4802F060FE60
:106C3000A06801210BF0B6F940F2E93603E007F055
:106C400061FF013E04D0A0690BF0CAF90128F6D01B
:106C5000A06800210BF0A6F995E80600A04802F014
:106C6000E5FD0D219E4802F049FE09219C4802F0F5
:106C700045FE20219A4802F041FE47F00801C9B2C2
:106C8000974802F03BFE964802F032FEA0680121D0
:106C900003B0BDE8F04F0BF085B940F2E93603E0F0
:106CA00007F030FF013E04D0A0690BF099F90128EC
:106CB000F6D0A06800210BF075F995E80600884829
:106CC00002F0B4FD1D21864802F018FE0921844817
:106CD00002F014FE2021824802F010FE00218048BC
:106CE00002F00CFE00217E4802F008FE07467C48B8
:106CF00002F0FEFDA06801210BF054F940F2E936E4
:106D000003E007F0FFFE013E04D0A0690BF068F934
:106D10000128F6D0A06800210BF044F995E80600A0
:106D20006F4802F083FD0D216D4802F0E7FD092157
:106D30006B4802F0E3FD2021694802F0DFFD07F017
:106D4000F7019DE740F2E93503E007F0DBFE013D86
:106D500004D0A0690BF044F90128F6D05F4DA0687B
:106D600000210BF01FF995E806005D4802F05EFD7A
:106D70001D215B4802F0C2FD0521594802F0BEFD0D
:106D80008021574802F0BAFD0021554802F0B6FDB7
:106D90000021534802F0B2FD01465148019102F032
:106DA000A7FDA06801210BF0FDF840F2E93703E0F0
:106DB00007F0A8FE013F04D0A0690BF011F90128EB
:106DC000F6D0A06800210BF0EDF895E806004448E5
:106DD00002F02CFD1D21424802F090FD05214048A3
:106DE00002F08CFD83213E4802F088FD00213C48E2
:106DF00002F084FD00213A4802F080FD83463848C5
:106E000002F076FDA06801210BF0CCF840F2E937E2
:106E100003E007F077FE013F04D0A0690BF0E0F833
:106E20000128F6D0A06800210BF0BCF895E8060018
:106E30002B4802F0FBFC1D21294802F05FFD0521D3
:106E4000274802F05BFD8421254802F057FD002110
:106E5000234802F053FD0021214802F04FFD8246F5
:106E60001F4802F045FDA06801210BF09BF840F29D
:106E7000E93703E007F046FE013F04D0A0690BF0BC
:106E8000AFF80128F6D0A06800210BF08BF895E848
:106E90000600134802F0CAFC1D21114802F02EFD25
:106EA00005210F4802F02AFD85210D4802F026FD3C
:106EB00000210B4802F022FD0021094802F01EFDCE
:106EC0008146074802F014FDA06801210BF06AF822
:106ED00040F2E9370CE000BF4C6400200C65002054
:106EE000386400200865002007F00CFE013F04D044
:106EF000A0690BF075F80128F6D0A06800210BF00E
:106F000051F895E806006A4802F090FC0D216848A7
:106F100002F0F4FC0521664802F0F0FC8021644890
:106F200002F0ECFC019B624843F00801C9B202F098
:106F3000E5FC5F4802F0DCFCA06801210BF032F8B0
:106F400040F2E93703E007F0DDFD013F04D0A0691E
:106F50000BF046F80128F6D0A06800210BF022F8CB
:106F600095E80600524802F061FC0D21504802F0FD
:106F7000C5FC05214E4802F0C1FC83214C4802F0BB
:106F8000BDFC0BF0F7014A4802F0B8FC484802F09B
:106F9000AFFCA06801210BF005F840F2E93703E0EF
:106FA00007F0B0FD013F04D0A0690BF019F80128EB
:106FB000F6D0A06800210AF0F5FF95E806003C48ED
:106FC00002F034FC0D213A4802F098FC05213848C3
:106FD00002F094FC8421364802F090FC0AF0F7019C
:106FE000334802F08BFC324802F082FCA068012199
:106FF0000AF0D8FF40F2E93703E007F083FD013FD4
:1070000004D0A0690AF0ECFF0128F6D0A0680021A6
:107010000AF0C8FF95E80600254802F007FC0D219C
:10702000234802F06BFC0521214802F067FC852112
:107030001F4802F063FC09F0F7011D4802F05EFCF6
:107040001B4802F055FCA06801210AF0ABFF40F29A
:10705000E93703E007F056FD013F04D0A0690AF0CC
:10706000BFFF0128F6D0A06800210AF09BFF95E839
:1070700006000F4802F0DAFB0D210D4802F03EFC3D
:1070800009210B4802F03AFC2021094802F036FCA5
:107090000621074802F032FC054802F029FCA068EE
:1070A00001210AF07FFF012388F8003091E500BF3D
:1070B0003864002070B5334C334EFFF7D5FC002503
:1070C000A068357001210AF0E9FEA06801210AF0EC
:1070D00069FFA06929460AF0E1FE606929460AF0C5
:1070E000DDFE606801210AF0D9FE606801210AF026
:1070F00059FF94F82C30206AF3B1411C39D1606AF1
:1071000001210AF0CBFE606A00210AF04BFF6068A3
:1071100001210AF0C3FE002160680AF043FF0A2043
:1071200007F0F0FC606801210AF03CFF142007F032
:10713000E9FC0023337070BD421CE8D0636A013360
:10714000E5D001210AF0AAFE606A01210AF0A6FE3C
:1071500094F82C508DB9606A431CD8D0236A01334F
:10716000D5D001210AF01EFF206A29460AF01AFF35
:10717000CDE729460AF092FEC1E7606A01210AF0D4
:1071800011FFC4E74C64002008650020024B014653
:107190000422586907F064BB4C64002010B50B4C06
:1071A000012160680AF07AFE002160680AF0FAFEA8
:1071B0000A2007F0A7FC606801210AF0F3FE142002
:1071C00007F0A0FC024B00221A7010BD4C64002096
:1071D0000865002038B5074D40F2E93403E007F0B8
:1071E00091FC013C04D0A8690AF0FAFE0128F6D00F
:1071F00038BD00BF4C64002038B5174B174D002434
:107200001C70FFF72DFC2146A8680AF0CBFE144B3A
:10721000144893E8060002F009FBC021114802F06F
:107220006DFB21460F4802F069FB0E4802F060FB3F
:10723000A86801210AF0B6FE40F2E93403E007F045
:1072400061FC013C04D0A8690AF0CAFE0128F6D00E
:10725000BDE83840FFF706BC086500204C640020FC
:107260000C650020386400202DE9F0411D4E1546C4
:1072700007460C4601F0AEFEB06800210AF092FE0F
:10728000194B1A4893E8060002F0D0FA174839461D
:1072900002F034FB65B1013DDFF8508014FA85F54A
:1072A000013C14F8011F404602F028FBAC42F8D123
:1072B0000E4802F01DFBB06801210AF073FE842F16
:1072C00001D1BDE8F08140F2E93403E007F01AFC97
:1072D000013CF6D0B0690AF083FE0128F6D0BDE883
:1072E000F08100BF4C6400200C6500203864002051
:1072F000F8B51D4E154607460C4601F06BFEB0680A
:1073000000210AF04FFE194B194893E8060002F0DD
:107310008DFA3946164802F0F1FA1548002102F0BC
:10732000EDFA65B1013D124F14FA85F5013C0021DB
:10733000384602F0E3FA04F8010FAC42F7D10C48EA
:1073400002F0D6FAB06801210AF02CFE40F2E934CE
:1073500003E007F0D7FB013C04D0B0690AF040FE1F
:107360000128F6D0F8BD00BF4C6400200C65002059
:1073700038640020F8B51E4E074615460C4601F04D
:1073800029FEB06800210AF00DFE1A4B1A4893E856
:10739000060002F04BFA0D21174802F0AFFA390A45
:1073A000154802F0ABFA1448F9B202F0A7FA5DB141
:1073B000013D114F14FA85F5013C14F8011F3846C0
:1073C00002F09CFAAC42F8D10B4802F091FAB06896
:1073D00001210AF0E7FD40F2E93403E007F092FBF7
:1073E000013C04D0B0690AF0FBFD0128F6D0F8BDDD
:1073F0004C6400200C6500203864002070B5194DE5
:1074000004460E4601F0E6FDA86800210AF0CAFD18
:10741000154B164893E8060002F008FA0D211348B0
:1074200002F06CFA210A114802F068FAE1B20F4842
:1074300002F064FA31460D4802F060FA0B4802F09F
:1074400057FAA86801210AF0ADFD40F2E93403E0E3
:1074500007F058FB013C04D0A8690AF0C1FD0128DF
:10746000F6D070BD4C6400200C650020386400200C
:10747000F8B5214E074615460C4601F0ABFDB06845
:1074800000210AF08FFD1D4B1D4893E8060002F015
:10749000CDF91D211A4802F031FA390A184802F0D4
:1074A0002DFAF9B2164802F029FA1548002102F027
:1074B00025FA65B1013D124F14FA85F5013C002112
:1074C000384602F01BFA04F8010FAC42F7D10C4821
:1074D00002F00EFAB06801210AF064FD40F2E934CE
:1074E00003E007F00FFB013C04D0B0690AF078FD1F
:1074F0000128F6D0F8BD00BF4C6400200C650020C8
:107500003864002070B51C4E044601F063FDB0687D
:1075100000210AF047FD194B194893E8060002F0D4
:1075200085F91D21164802F0E9F9210A144802F0F4
:10753000E5F9E1B2124802F0E1F90021104802F049
:10754000DDF900210E4802F0D9F904460C4802F09A
:10755000CFF9B06801210AF025FD40F2E93503E0DA
:1075600007F0D0FA013D04D0B0690AF039FD0128D6
:10757000F6D0204670BD00BF4C6400200C65002092
:1075800038640020F8B51D4E174605460C4601F03C
:1075900021FDB06800210AF005FD194B194893E858
:1075A000060002F043F90E21164802F0A7F915482B
:1075B000294602F0A3F967B1BDB2013D114F14FA9B
:1075C00085F5013C14F8011F384602F097F9AC42EA
:1075D000F8D10C4802F08CF9B06801210AF0E2FC05
:1075E00040F2E93403E007F08DFA013C04D0B069C1
:1075F0000AF0F6FC0128F6D0F8BD00BF4C6400206C
:107600000C65002038640020F8B51F4E174605466B
:107610000C4601F0DFFCB06800210AF0C3FC1B4BF4
:107620001B4893E8060002F001F91E21184802F0F9
:1076300065F92946164802F061F91548002102F063
:107640005DF96FB1BDB2013D114F14FA85F5013CF2
:107650000021384602F052F904F8010FAC42F7D18C
:107660000B4802F045F9B06801210AF09BFC40F29A
:10767000E93403E007F046FA013C04D0B0690AF0AF
:10768000AFFC0128F6D0F8BD4C6400200C6500204A
:1076900038640020022101F08BBE00BF034B1B6841
:1076A000022B0CBF02200120704700BF4C64002059
:1076B00010B50A4C94F82A301BB994F82C303BB919
:1076C00010BD0120FFF778FA94F82C30002BF7D08A
:1076D000606A0121BDE810400AF064BC4C640020DF
:1076E00010B50A4C94F82A301BB994F82C303BB9E9
:1076F00010BD0020FFF760FA94F82C30002BF7D073
:10770000606A0021BDE810400AF04CBC4C640020C7
:1077100038B50C4C94F82C50606A75B9431C0BD0EA
:10772000236A013308D001210AF03CFC206A294673
:10773000BDE838400AF036BC38BDBDE8384001210C
:107740000AF030BC4C64002010B50C4C94F82C109E
:10775000606A69B9431C0AD0236A013307D00AF072
:1077600021FC206A0121BDE810400AF01BBC10BDBD
:10777000BDE8104001210AF015BC00BF4C64002098
:10778000034B044A1A604FF480729A80704700BF1E
:107790000C65002080841E0070B40A480A4E0B4D10
:1077A0000B4C0C49012242F210737270B3606A7084
:1077B000AB606270A360427070BC83604A708B6083
:1077C000704700BF2C6500207465002044650020D0
:1077D000146500205C650020034B012142F2107209
:1077E00059709A60704700BF8C6500200120704777
:1077F000034B93F82930002B14BF3520032070472A
:107800004C640020014B1870704700BF5367002084
:10781000704700BF002001F087BC00BF194B024633
:1078200010B519481A6001F073FB002001F07CFCD0
:10783000164B93F82B300BB3002001F011FD002103
:10784000084601F011FF0421002001F0B1FD0023E2
:107850004FF6FF711A46084601F010FD0C4C0D481A
:107860000D49012343706370FFF714F90B4920465B
:10787000FFF710F90A4B00221A7010BD012001F029
:10788000EFFCDCE74C670020057C02004C64002024
:10789000C066002034670020897F0200C57F020097
:1078A000A46500200B4B024610B50B481A600B4C28
:1078B00001F082FB0A480B49012343706370FFF714
:1078C000E9F809492046FFF7E5F8084B00221A704D
:1078D00010BD00BF4C670020057C0200C066002080
:1078E00034670020897F0200C57F0200A465002064
:1078F00008B501F063FB0438C0B2032896BF024B01
:107900000020185C08BD00BF1465030001F0DCBC5A
:10791000FFF7F8BDFFF772BD2DE9F04F2DED028B9B
:107920008B4683B000287AD0012872D1DFF8C4A139
:107930006B499AF851209AF85050BAF82400043A4A
:10794000C5F10C0402EB420204EB420201EBC2025D
:10795000D2E90089C5EB4B0B0BF02EF99AF82840C1
:107960009AF826200BF1070B0BEB840B012A41EC54
:10797000180B4FEA8B0008BF14380BF01DF99AF86A
:10798000532006460F4602B1023DA8000BF014F941
:1079900002460B46304639460BF0A2FA41EC100B7A
:1079A00006F056FC9AF8520057EC106B00F00300FA
:1079B00004300BF001F932463B460BF067F9002228
:1079C000002306460F460BF0E7FB002839D051ECA8
:1079D000180B444B00220AF0A3FF02460B46304628
:1079E00039460AF09DFF42464B460BF04FF93AA349
:1079F000D3E900230AF094FF41EC100B06F0A8FC39
:107A000051EC100B0BF004FC03B0BDEC028BBDE895
:107A1000F08F002003B0BDEC028BBDE8F08FDFF8E3
:107A2000D4A09AF8213003F0FB02022A4FF000069E
:107A30000AD00F33DBB2012B06D9002A4AD12A4FD4
:107A400004E000260027C2E74FF08047BAF81A305A
:107A50009AF81D0003EBD0000BF0AEF89AF81F4027
:107A600002460B469CB3204D00245846CDE9002326
:107A70000BF0A2F8DDE900230AF052FF32463B4644
:107A80000AF04EFF22462B460AF04AFF174B00220F
:107A90000BF0FCF80446DAF844000D460BF07CF8D5
:107AA00002460B46204629460BF01AFA104B0022DC
:107AB0000BF0ECF841EC100B06F0CEFC51EC100B87
:107AC0000BF0A6FB03B0BDEC028BBDE8F08F0024E9
:107AD0000025CAE70027B9E72B8716D9CEF7EF3F75
:107AE00060660300008028400000F03F0000204056
:107AF00000408F40D866002038B50C460546FFF799
:107B000023FE40F2012100231A46084601F0B6FB8D
:107B100001F048FC0C4B01280C480CBF83F82740AF
:107B200083F8204001F0FEFC21462846002201F0A7
:107B300093FA074B07481968FFF70EF8BDE838407D
:107B40000448FEF7F1BF00BFD8660020F0660020B1
:107B5000306700203467002008B54FF0040001F0C2
:107B6000CFFABDE80840022006F0CCBF38B50D467C
:107B700000234FF6FF7104461A46084601F07EFBCB
:107B800029462046BDE8384001F020BB01F04ABD3F
:107B900008B5FFF7BDFD00234FF4C0711A46084633
:107BA00001F06CFBBDE8084001F02CBB38B50D4678
:107BB000144601F089FB2846FFF76CFD01F02EFB0F
:107BC00020460AF0F9FF084B084C00220BF05EF843
:107BD0000BF01EFB01462046FEF7BEFF2046BDE827
:107BE0003840FEF7A1BF00BF00408F40346700203F
:107BF00008B501F049FD00B208BD00BFFFF7BABBF0
:107C0000FFF736BC08B5FEF72BFF064B01221A70B2
:107C1000FEF728FF044B05491868BDE8084007F047
:107C200063BA00BFA46500208064002008600020C3
:107C30002DE9F0418B4C257882B0002D29D18A4B5B
:107C40001A78AAB11D708948FEF77EFF884B1B6821
:107C5000002B4AD0DB68002B47D098472E46854B37
:107C60001A7812B100221A703EB102B0BDE8F0815C
:107C7000804B19780029F8D01A707F48FEF764FF0E
:107C80007B4B1B68002BF0D05B68002BEDD0984736
:107C9000EBE7FEF7E5FE00232370FEF7E3FE01F0BD
:107CA00003FB04464FF6FF7001F03CFD14F00106A3
:107CB0007AD114F0020353D11F46220642D4A30501
:107CC00026D4600705D56A4B1B6813B15B6903B105
:107CD0009847A1060BD4644B1A78002ABFD0002223
:107CE0001A70002FBBD13546ADE72E46B7E75F4887
:107CF000FEF72AFF614B1B78002B00F0A4805C4B41
:107D00001B68002BE7D01B69002BE4D09847E2E703
:107D100001F054F9042874D001F050F90528D0D1AD
:107D20005248FEF711FF012001F04EF9504B1A683E
:107D3000002A00F08C80D268002A00F08C809047E6
:107D40002F46BEE7012001F03FF9494B1B68002B8D
:107D5000B5D0DB69002BB2D0C4F300209847AEE762
:107D60004248FEF7F1FE454B1F78002F57D0002107
:107D70004348FF220BF0A2FC610625D5FF2200211B
:107D80003F480BF09BFCFF220DF107013C4801F03E
:107D900035F93C4801F086FC354B1B6813B11B6973
:107DA00003B198472F4688E73348FEF7CDFE012000
:107DB00001F00AF92E4B1B6823B11B6813B19847D9
:107DC0002E4676E72E4674E72E4F2D48FF220DF102
:107DD000070101F013F9384601F064FC244B1B68DD
:107DE000002BDFD0D3F80880B8F1000FDAD097F974
:107DF0000D3097F90C209DF807102148C0472F46F9
:107E00005BE71D48FEF7A0FE012001F0DDF8184BEE
:107E10001A68F2B1526802B390472E4651E701202A
:107E200001F0D2F8394640F60210FFF7E7FA40F6C3
:107E30004410FFF767FB40F00200C1B240F6441067
:107E4000FFF7DCFA93E7012001F0BEF857E72F4671
:107E500035462E463DE72F4635466207F9D51B6865
:107E60002E4633E7A46500202C670020C066002062
:107E70004C6700202D67002034670020BB6600207F
:107E8000BC650020A865002008B5FEF7E9FD044B9D
:107E900001221A70FEF7E6FDBDE80840FFF7C8BEF4
:107EA000A465002001280A4803D0C37F012B07D016
:107EB0007047084B80F827101830197001F032BB5A
:107EC000044B80F820101830197001F02BBB00BF54
:107ED000D86600200560002010B50446FFF718FCA6
:107EE000002340F262211A46084601F0C7F97CB926
:107EF0000B4B1B782BB1BDE810406FF07F4001F0B9
:107F00002DB9084B1868BDE81040800101F026B972
:107F100005482146FEF720FE0348FEF705FEE7E789
:107F2000BB660020BC660020C0660020002340F233
:107F3000622110B51A460446084601F09FF90F4B1E
:107F40001B789BB12CB9BDE810406FF07F4001F069
:107F500021B921460A48FEF7FFFD0948FEF7E4FD76
:107F6000BDE810406FF07F4001F014B9054B186870
:107F7000BDE81040800101F00DB900BFBB660020D4
:107F8000C0660020BC66002008B5FEF769FD0B4BFB
:107F900001221A70FEF766FD0948FEF7D5FDFFF7CE
:107FA00047FE002001F0C0F84FF0040001F0A8F8EF
:107FB000BDE80840022006F0A5BD00BF2D670020E7
:107FC0003467002008B5FEF74BFD0B4B01221A70F9
:107FD000FEF748FD0948FEF7B7FDFFF729FE002030
:107FE00001F0A2F84FF0040001F08AF8BDE8084063
:107FF000022006F087BD00BF2C670020C06600206D
:1080000010B5012001F0BCF9164B1A7822B91649B7
:108010000C784878A04203D1144B01221A7010BD8D
:108020004C701A70FFF7ECFF6CB134214FF4E8602C
:10803000FFF7E4F9442140F24170FFF7DFF90B4B01
:1080400001221A7010BD14214FF4E860FFF7D6F931
:10805000242140F24170FFF7D1F9044B01221A703C
:1080600010BD00BF546700205067002052670020F9
:108070002DE9F041434C012001F082F9237823B926
:10808000414D2E786A78B24212D1404C0123002033
:10809000237001F063F801F023F804464FF0040068
:1080A00001F02EF8022006F02DFD2046BDE8F081FB
:1080B000012023706E7001F063F923787BB1334C9B
:1080C00001232370002E3BD034214FF4E860FFF7EA
:1080D00095F9442140F24170FFF790F9D6E72F78E7
:1080E0006A78BA42EBD0012023706F7001F048F932
:1080F0002378B3B995F800806A78424511D085F8A5
:1081000001802370FFF77CFFB8F1000F2ED03421DF
:108110004FF4E860FFF772F9442140F24170FFF735
:108120006DF91A4C01232370AFB134214FF4E8608C
:10813000FFF764F9442140F24170FFF75FF9BFE7B0
:1081400014214FF4E860FFF759F9242140F24170FF
:10815000FFF754F99AE714214FF4E860FFF74EF95E
:10816000242140F24170FFF749F9A9E714214FF4A7
:10817000E860FFF743F9242140F24170FFF73EF930
:10818000CFE700BF546700205067002052670020EF
:108190002DE9F041424C012001F0F2F8237823B997
:1081A000404D2E786A78B24210D13F4C01234FF4F3
:1081B000E8602370FFF7A6F9044640F24170FFF72C
:1081C000A1F900EB042080B2BDE8F081012023700A
:1081D0006E7001F0D5F823787BB1334C0123237006
:1081E000002E3BD034214FF4E860FFF707F944211B
:1081F00040F24170FFF702F9D8E72F786A78BA4267
:10820000EBD0012023706F7001F0BAF82378B3B976
:1082100095F800806A78424511D085F80180237076
:10822000FFF7EEFEB8F1000F2ED034214FF4E860D6
:10823000FFF7E4F8442140F24170FFF7DFF81A4CF1
:1082400001232370AFB134214FF4E860FFF7D6F873
:10825000442140F24170FFF7D1F8BFE714214FF4F9
:10826000E860FFF7CBF8242140F24170FFF7C6F831
:108270009CE714214FF4E860FFF7C0F8242140F296
:108280004170FFF7BBF8A9E714214FF4E860FFF74E
:10829000B5F8242140F24170FFF7B0F8CFE700BFF6
:1082A0005467002050670020526700202DE9F843F2
:1082B000444D0126044630462E7001F061F82B78BB
:1082C0002BB9414F97F800807A7842450ED13F4D47
:1082D0000123210A4FF4E8602B70FFF78FF8E1B219
:1082E00040F24170BDE8F843FFF788B830462B7084
:1082F00087F8018001F044F82B7883B1334D0123D6
:108300002B70B8F1000F3BD034214FF4E860FFF739
:1083100075F8442140F24170FFF770F8D8E797F8FC
:1083200000907A784A45E9D030462B7087F8019062
:1083300001F026F82B7893B93E787A78B2420ED0C5
:108340007E702B70FFF75CFE86B334214FF4E8603B
:10835000FFF754F8442140F24170FFF74FF81B4DEE
:1083600001232B70B9F1000F15D034214FF4E860D0
:10837000FFF744F8442140F24170FFF73FF8BEE7B1
:1083800014214FF4E860FFF739F8242140F24170DE
:10839000FFF734F89CE714214FF4E860FFF72EF85C
:1083A000242140F24170FFF729F8A8E714214FF487
:1083B000E860FFF723F8242140F24170FFF71EF830
:1083C000CDE700BF546700205067002052670020AF
:1083D0002DE9F04383B00D469DF82C60BDF830C008
:1083E0009DF834E09DF838809DF84410002853D063
:1083F000012840F0A580BB4ABB4CD25C84F85120D8
:108400000A9A84F84000D2B284F8526084F850206E
:10841000002B40F0A9800A9B0B3B012B01D9B34BE9
:10842000187884F853000123053A9A42237640F2E3
:10843000A680A4F824C0AE4A002312786EF3070386
:1084400062F30F2368F3174361F31F630020C4F83E
:10845000263000F069FE94F84060002E40F09680CF
:10846000304600F08DFFA34AA34B56701E70A34800
:1084700000F0F6FFA24801F055F894F85130062BB1
:108480005ED140F68900FFF73DF800F0FB0140F6B1
:108490008900FEF7B3FF5EE0934C0B2184F84000A7
:1084A0000A98606484F84C107BB19649012001EB76
:1084B000C00656F8087CBB4204D351F83070BB426A
:1084C000C0F0848001301628F1D11F26B8F1000FCA
:1084D00041F604034FF0000084F84D604FEACC0CE5
:1084E0008EF0010E14BFF2210121A3830126A4F80E
:1084F0001AC084F81FE0A26484F821102076A077C7
:1085000084F8226000F010FE94F84040002C4DD119
:10851000204600F035FF774A774B54701C7077483F
:1085200000F09EFF764800F0FDFF774B0093684611
:108530000023019300F0AEFD40F2FF1000F0B4FD07
:1085400040F68900FEF7DEFF40F00400C1B240F6BD
:108550008900FEF753FF2846FFF79CF86B4B129AF1
:108560001A6003B0BDE8F083012B7FF458AF0A987E
:108570000C287FF454AF84F85330237659E7BCF1CC
:108580000B0F3FF656AF0C23A38454E7604E012037
:1085900000F0F6FE33782BB9564F97F800807A78C2
:1085A000424542D1544E0123337060E7584C304667
:1085B00000F0E6FE23782BB94E4F97F800807A78CA
:1085C000424505D14C4E01233370A8E736797DE74B
:1085D0003046237087F8018000F0D2FE23789BB9E3
:1085E0003E787A78B2420FD07E702370FFF708FD94
:1085F000002E6BD034214FF4E860FEF7FFFE4421DB
:1086000040F24170FEF7FAFE3B4E01233370B8F1A1
:10861000000F3AD034214FF4E860FEF7EFFE44211A
:1086200040F24170FEF7EAFECDE70120337087F893
:10863000018000F0A5FE3378B3B997F800907A78FE
:108640004A4511D087F801903370FFF7D9FCB9F192
:10865000000F30D034214FF4E860FEF7CFFE442104
:1086600040F24170FEF7CAFE234E01233370B8F189
:10867000000F15D034214FF4E860FEF7BFFE44210F
:1086800040F24170FEF7BAFE8DE714214FF4E86026
:10869000FEF7B4FE242140F24170FEF7AFFE92E7F0
:1086A00014214FF4E860FEF7A9FE242140F2417046
:1086B000FEF7A4FE77E714214FF4E860FEF79EFE74
:1086C000242140F24170FEF799FECDE714214FF4CA
:1086D000E860FEF793FE242140F24170FEF78EFE23
:1086E00092E700BFA0650300D86600205367002012
:1086F00005600020506700205267002018670020A6
:10870000F0660020AC650300C194C1003067002012
:108710005467002001282DE9F041044609D00020CB
:1087200000F02EFE3F4A404B002151701C70BDE806
:10873000F0813E4D00F024FE2B78002B3DD1394EC8
:1087400037787278BA4238D020462B70777000F0B4
:1087500017FE2B78B3BB96F800807278424531D073
:1087600020462B7086F8018000F00AFE2B789BB91A
:1087700034787278A2420FD074702B70FFF740FCEF
:10878000002C44D034214FF4E860FEF737FE44213A
:1087900040F24170FEF732FE234C01232370B8F102
:1087A000000F29D034214FF4E860FEF727FE442162
:1087B00040F24170FEF722FE05E01B4C01232370BE
:1087C000BDE8F081184C0123237057B134214FF4D8
:1087D000E860FEF713FE442140F24170FEF70EFE02
:1087E000ECE714214FF4E860FEF708FE242140F284
:1087F0004170FEF703FEE1E714214FF4E860FEF755
:10880000FDFD242140F24170FEF7F8FDDBE7142165
:108810004FF4E860FEF7F2FD242140F24170FEF7CC
:10882000EDFDB9E750670020526700205467002033
:108830002DE9F04F87B0CE4D9DF864409DF84C90E7
:10884000BDF84880DFF85CA39DF850602C70002CC8
:1088500018BF4FF00008B9F1000F08BFFF260D4602
:1088600017468AF80060BDF844B09DF854109DF892
:1088700060200646002878D0012840F0E7800020DC
:10888000CDE90212019300F0CFFC5FFA88F000F00E
:10889000D9FCB848B84C405D019B84F85100F8B24F
:1088A000DDE9021284F8406084F8523084F8500008
:1088B000002D40F0CE800B3F012F01D9AF4B1E7829
:1088C00084F85360012305389842237640F2EA8009
:1088D000A4F824B09AF80000A94D002369F3070317
:1088E00060F30F2361F3174362F31F63C4F826306C
:1088F000012000F045FD2B78002B40F0B480A14E04
:1089000037787278BA4200F0AE8001202B70777011
:1089100000F036FD2B78BBB996F80080727842459E
:1089200012D086F801802B70FFF76AFBB8F1000FB8
:1089300000F03A8134214FF4E860FEF75FFD4421F6
:1089400040F24170FEF75AFD8F4D01232B70002F2E
:1089500000F0CA8034214FF4E860FEF74FFD442157
:1089600040F24170FEF74AFD7EE0834C019100F039
:108970005BFC0B23019984F84060676484F84C30F9
:108980007DB18248012200EBC20656F8083C9D42A8
:1089900004D350F832309D42C0F0A4800132162A30
:1089A000F1D11F26002941F604034FF000009AF888
:1089B0000010A38314BFF22201224FEACB0B89F0EF
:1089C00001090125A4F81AB084F81F9084F820103A
:1089D00084F84D6084F821202076A07784F8225016
:1089E00000F0A2FB94F84040002C6BD1204600F030
:1089F000C7FC644A644B54701C706548654E00F0B7
:108A00002FFD654800F08EFD644B049304A80023FD
:108A1000059300F03FFB40F2FF1000F045FB3846A5
:108A20000AF0BAF802460B4600205D490AF058FAEF
:108A3000044640460D460AF0BFF802460B46204663
:108A400029460AF023F90AF0E3FB306007B0BDE8DD
:108A5000F08F012D7FF432AF0C2F7FF42FAF84F80D
:108A60005350257634E7484D494801232B7000F0D8
:108A7000F7FC494800F056FD94F82930012B40F2EC
:108A8000367016D0FEF73EFD40F00400C1B240F251
:108A90003670FEF7B3FC3F4B4FF460721A6007B0BC
:108AA000BDE8F08FBBF10B0F3FF612AF0C23A38490
:108AB00010E7FEF727FD00F0FB0140F23670FEF7ED
:108AC0009DFCE8E72E4C284600F05AFC23782BB991
:108AD0002C4E96F8009072784A4510D12A4D012309
:108AE0002B708AE736795DE714214FF4E860FEF7D2
:108AF00085FC242140F24170FEF780FCB4E7284653
:108B0000237086F8019000F03BFC23789BB9357800
:108B10007278AA420FD075702370FFF771FA002D9A
:108B20004DD034214FF4E860FEF768FC442140F258
:108B30004170FEF763FC144D01232B70B9F1000F57
:108B40000AD034214FF4E860FEF758FC442140F28B
:108B50004170FEF753FCC2E714214FF4E860FEF7C2
:108B60004DFC242140F24170FEF748FCB7E700BFFE
:108B7000BB660020A0650300D86600205367002074
:108B8000546700205067002052670020AC65030046
:108B900018670020BC660020F0660020C194C10068
:108BA0000040BF400560002014214FF4E860FEF74C
:108BB00025FC242140F24170FEF720FCC4E614217C
:108BC0004FF4E860FEF71AFC242140F24170FEF7F2
:108BD00015FCB0E72DE9F84F1C4606460F46154632
:108BE00000F0ECF9031FDBB2032B04D86A4AD35C14
:108BF000002B40F09A80012E3ED0002000F0C0FBF8
:108C0000664A674B002151701E70384600F05CFBCD
:108C1000FEF77EFD002340F262211A46084600F06E
:108C20002DFB604B1B7803BB5F4B1868800100F085
:108C300095FA012005F066FFFDF79EFF064604E069
:108C400000F022FD00B2854214DB3046FDF796FFAE
:108C5000A042F5D301244FF0040000F051FA0220A5
:108C600005F050FF2046BDE8F88F6FF07F4000F020
:108C700075FADEE70024EEE7DFF83081304600F0D9
:108C80007FFB98F80030002B4BD1DFF8109199F85A
:108C900000A099F80120524543D0304688F80030B2
:108CA00089F801A000F06CFB98F80030002B40D14F
:108CB00099F800B099F801205A453AD0304688F822
:108CC000003089F801B000F05BFB98F80030BBB9C8
:108CD00099F8006099F80120B24211D089F801603A
:108CE00088F80030FFF78CF9002E49D034214FF47A
:108CF000E860FEF783FB442140F24170FEF77EFB03
:108D0000274E01233370BBF1000F2ED034214FF4D6
:108D1000E860FEF773FB442140F24170FEF76EFB02
:108D200008E01F4E012333706FE700242046BDE8A2
:108D3000F88F1B4E01233370BAF1000F0AD0342193
:108D40004FF4E860FEF75AFB442140F24170FEF711
:108D500055FBE7E714214FF4E860FEF74FFB2421B1
:108D600040F24170FEF74AFBDCE714214FF4E86063
:108D7000FEF744FB242140F24170FEF73FFBD9E7A8
:108D800014214FF4E860FEF739FB242140F24170D2
:108D9000FEF734FBB4E700BF146503005067002002
:108DA00052670020BB660020BC660020546700208C
:108DB0002DE9F8434C4D4D4E0446002301203370FD
:108DC0002C706C7000F0DCFA33781BB92F786A785D
:108DD000BA421BD1464D01232B705CB134214FF4B4
:108DE000E860FEF70BFBBDE8F843442140F2417018
:108DF000FEF704BB14214FF4E860FEF7FFFABDE86C
:108E0000F843242140F24170FEF7F8BA0120337094
:108E10006F7000F0B5FA33787BB1354D01232B70BC
:108E2000002F3FD034214FF4E860FEF7E7FA4421E9
:108E300040F24170FEF7E2FACDE795F800806A78DB
:108E40004245EAD00120337085F8018000F098FA9D
:108E50003378B3B995F800906A784A4511D085F80F
:108E600001903370FFF7CCF8B9F1000F30D0342106
:108E70004FF4E860FEF7C2FA442140F24170FEF779
:108E8000BDFA1B4D01232B70B8F1000F15D0342112
:108E90004FF4E860FEF7B2FA442140F24170FEF769
:108EA000ADFABBE714214FF4E860FEF7A7FA2421DE
:108EB00040F24170FEF7A2FA8DE714214FF4E8600A
:108EC000FEF79CFA242140F24170FEF797FAA5E7DD
:108ED00014214FF4E860FEF791FA242140F241702A
:108EE000FEF78CFACDE700BF5067002054670020E2
:108EF000526700200448054B012142F21072417074
:108F0000826059709A60704734670020C066002004
:108F100070B584B000260190FEF740F90198244C0A
:108F2000244DFEF733F9FEF767F98DF80C60FEF774
:108F3000D7FB012203A98020FEF796F99DF80C20AB
:108F400094F82930B2420CBF012202222A7033B9B0
:108F500094F8283003BB01232B7004B070BD94F843
:108F60002D308DF80D6003F00703042203A997202C
:108F70004FF44C468DF80C30ADF80E60FEF774F9E6
:108F80007F23012203A989208DF80C30FEF76CF9AC
:108F900094F82830002BDED0012203A99D208DF803
:108FA0000C20FEF761F901232B7004B070BD00BFE7
:108FB0004C6400205D670020FEF7E8B8014B18788C
:108FC000704700BF5D670020014B1870704700BFFD
:108FD0005D67002008B5084B1B782BB1062B03D02A
:108FE000BDE80840FEF7F6B8FEF706F9FEF760FBAD
:108FF000BDE80840FEF7EEB85D67002070B582B0AE
:1090000006460D46144601A902221320FEF770F908
:10901000104B1B78012B0FD09DF804202A7094422E
:109020009DF8050002D2012002B070BD3146FEF766
:10903000EBFA002002B070BD40F20470FEF762FA55
:10904000C0110128E8D140F20270FEF75BFA024637
:109050002870E4E75C67002030B50B4683B0144607
:1090600001461A460020FEF78DFA0425084B8DF8BC
:109070000640200C8DF80400240A03220DEB0501A4
:1090800083208DF805401D70FEF7EEF803B030BD6B
:109090005D67002008B5014608224FF4D860FEF74E
:1090A00069F9002008BD00BF0C4B1B7803B1704765
:1090B00010B504464FF4D760FEF724FAC4F300213C
:1090C00000F0FE0001434FF4D760FEF797F9E1B2DC
:1090D00040F2B960BDE81040FEF790B95C6700202F
:1090E00000B5042283B000230DEB020140F6190005
:1090F0000193FEF7BDF9019800BA03B05DF804FBD7
:1091000000B583B08DF80400FEF7EAFA012201A948
:109110008420FEF7A9F8034B00221A7003B05DF813
:1091200004FB00BF5D67002000B583B08DF8070029
:10913000FEF7D6FA01220DF107018020FEF794F820
:109140009DF80720044B002A0CBF012202221A704E
:1091500003B05DF804FB00BF5D67002030B50C4B29
:1091600083B004460522942140F6AC001A70250C09
:10917000FEF744F9230A032201A982208DF8064054
:109180008DF804508DF80530FEF76EF803B030BD51
:109190005D67002030B50C4B83B004460522962154
:1091A00040F6AC001A70250CFEF728F9230A0322BA
:1091B00001A982208DF806408DF804508DF8053005
:1091C000FEF752F803B030BD5D67002070B582B085
:1091D0004BBA060C050A0C0C8DF8020006226946F3
:1091E0009420ADF804308DF800608DF801508DF8B2
:1091F0000340FEF739F8024B06221A7002B070BD28
:109200005D67002008B500221146C520FEF72CF846
:10921000014B07221A7008BD5D670020002211462D
:10922000D120FEF721B800BF00B583B0034601226C
:109230000DF107019F208DF80730FEF715F803B0F8
:109240005DF804FB00B583B0034601220DF1070170
:10925000A0208DF80730FEF707F803B05DF804FB97
:1092600000B583B0034601220DF1070196208DF869
:109270000730FDF7F9FF03B05DF804FB70B5144645
:1092800082B0082246BA4DBA5BBA64BA1046694643
:10929000ADF80060ADF80250ADF80440ADF806300E
:1092A000FDF7E2FF02B070BD00B583B0022201A954
:1092B0001220FEF71DF89DF804009DF8053043EAE2
:1092C000002003B05DF804FB70B5274E337882B000
:1092D00004469BB101AD204609F05EFC20A3D3E912
:1092E000002309F0D3FC09F093FF294603BA0422B6
:1092F00086200193FDF7B8FF02B070BD1B4B98426A
:109300000FD81B4B984211D94DF6D733ADF8043026
:1093100001AD294602229820FDF7A6FF01233370F4
:10932000D9E74EF6E113ADF80430F1E7114B98425E
:1093300007D8114B984209D948F27513ADF804309B
:10934000E6E74CF2C153ADF80430E1E70B4B98422D
:1093500084BF46F66B73ADF80430D9E7AFF30080F5
:109360008DEDB5A0F7C6F03F5E67002000E9A4359B
:1093700080F8A9328044E52D000B6B1B40FC54198A
:1093800010B5074C82B0034601220DF107018A2077
:109390008DF807302370FDF767FF02B010BD00BFE6
:1093A0005C670020014B1878704700BF5C670020A5
:1093B00070B5044682B000200E46FEF76FF9012812
:1093C00023D10F2C01AD0CBF214B224B0193294619
:1093D00095200422FDF748FF6FF010039C42B8BFB0
:1093E0001C460E2C4FF0180140F6E700A8BF0E24D3
:1093F000FEF704F8294602228E208DF804408DF8ED
:109400000560FDF731FF02B070BD40F6D800FEF7F1
:1094100079F840F01E00C1B201AD40F6D800FDF76A
:10942000EDFF0D4B0193294604229520FDF71CFF0B
:109430006FF008039C42B8BF1C46162C4FF0380151
:1094400040F6E700A8BF1624FDF7D8FFD2E700BF1B
:1094500006000101040001010407000100000000F2
:1094600070B52F4E0578337884B000229D42CDE947
:10947000022204460BD1B3B1012B06D1236902931A
:10948000042202A98B20FDF7EFFE04B070BD01227B
:109490000DF107018A208DF807503570FDF7E4FEC5
:1094A0002378002BE8D1606809F076FB02460B4672
:1094B00017A1D1E9000109F013FD09F0A9FE627BB3
:1094C000217B8DF80C200346060C050AA0688DF858
:1094D0000A308DF808608DF809508DF80B1009F0EE
:1094E0005BFB0DA3D3E9002309F0D0FB09F090FE4C
:1094F000082243BA040C0DEB02018B208DF80D40BD
:10950000ADF80E30FDF7B0FE04B070BDAFF30080D3
:10951000000000008084CE418DEDB5A0F7C6F03F7D
:109520005C67002070B53E4E0578337884B0002229
:109530009D42CDE9012204468DF80C2013D1EBB1F8
:10954000012B0ED1A389228AE189ADF808205BBAEC
:10955000ADF80610ADF80430062201A98C20FDF705
:1095600083FE04B070BD012269468A208DF8005048
:109570003570FDF779FE2378002BE1D1637AF12B6A
:109580001DD0F22B13D06288267AA588E088A17AB4
:109590008DF80B3053BAADF804308DF80A60ADF891
:1095A0000650ADF808008DF80C100922D5E7337885
:1095B00040F61D72ADF80020EBB10623E3E73378E7
:1095C0004FF6FF72ADF800200BB10223DBE7022259
:1095D000694640F2BC60FDF7CDFE33784FF4B062CF
:1095E000ADF80020002BF0D16946022240F2BE60A7
:1095F000FDF7C0FEE9E70222694640F2BC60FDF7D4
:10960000B9FE337842F21012ADF80020002BD4D10D
:109610006946022240F2BE60FDF7ACFECDE700BF16
:109620005C67002030B5002483B060F3070461F369
:109630000F2406998DF8061062F3174463F31F6434
:109640000D0C0B0A0722694688208DF8053000941E
:109650008DF80450FDF708FE024B07221A7003B084
:1096600030BD00BF5D67002010B582B00B460446D8
:10967000022201A98F208DF804408DF80530FDF7F6
:10968000F3FD02B010BD00BF00B583B0012201A9F7
:109690001520FDF72DFE9DF804004042401003B058
:1096A0005DF804FB10B582B00446032201A9142022
:1096B000FDF71EFE194B1B7823705BB1012B19D0EF
:1096C00000230F2223606360A360E36023612270A4
:1096D00002B010BD9DF806209DF805109DF804000D
:1096E000A360494253425B104A10A271637120711A
:1096F00002B010BD9DF804109DF905209DF80630BC
:10970000074849420068206102325B4249109210CA
:109710005B1021736273A37302B010BD5C670020FD
:109720005867002000B5022283B043BA01A9104651
:10973000ADF80430FDF798FD03B05DF804FB00BF01
:1097400070B500249DF810504474C9B10F4E0160EB
:10975000B142846012D00E4CA14204BF01210171BC
:109760000C4951F8226051F8234051F82520067326
:10977000002384734273C373037470BD0471EFE7F5
:10978000054B064A0648242109F0E4FE0030024059
:1097900000F002401C690300F0660300006703004C
:1097A00040670300437C03B1704730B54FF48072CB
:1097B00085B002820321FF22019304468DF8032025
:1097C0008DF806208DF80510827B417B8DF80020F6
:1097D0004FF080451A4602958DF80110057BC37342
:1097E000694603938DF8025007F0FEFCA37B1F2B04
:1097F00086BF03F01F030C4A4FF0A04203F5E0734D
:1098000040F2013142F82310637B1F2B86BF03F027
:109810001F03054A4FF0A04203F5E07340F2033105
:1098200042F8231005B030BD0003005010B483B0DF
:1098300002AB03E906009DF805109DF804200368BB
:10984000013918BF01210024022AC3F800450C4643
:109850000174C27332D0032A2DD0012A28D0224AA3
:109860000099B2FBF1F2B2F5007FC3F8544504D27F
:10987000FF2A0DD94FF0806101E04FF000710722FF
:10988000C3F82415C3F8002503B05DF8044B7047F6
:109890007F2A16D83F2A17D81F2A18D80F2A19D876
:1098A000072A02D811498B4217D04FF00041E6E752
:1098B00041F00204D3E741F00604D0E741F004048C
:1098C000CDE74FF00061DAE74FF08051D7E74FF076
:1098D0000051D4E74FF08041D1E7032A8CBF4FF00D
:1098E00020614FF0A051CAE70090D00300F0024081
:1098F00003680022C3F80025704700BF30B587B069
:1099000001230D460DF10704002202A9CDE903341D
:109910008DF807500294059307F0A8FD9DF8070005
:1099200007B030BD30B4094A094B546FD068916F0D
:109930001C7300220124074D1C7198735973DA734C
:109940001A821D609A6030BC704700BF1C6903001A
:109950006067002000F002400146014800F056BA5E
:109960009467002038B500F097F940B1002405460F
:109970002046013400F0CAFDE0B28542F9D838BD76
:1099800070B592B01D460C46164601A84222002131
:1099900009F094FE412D5CD9631C0222DBB28DF8E4
:1099A00006408DF80E408DF8264040F6083540F20E
:1099B00002248DF81E308DF827308DF83130ADF847
:1099C00004508DF807208DF812208DF833208DF883
:1099D0003B20ADF80840204A069240F201250523BD
:1099E0002424ADF810508DF815308DF8164004235E
:1099F0001A4C8DF81F30012540F224628DF81C505E
:109A00008DF830300894ADF82420154D0A950823C0
:109A10004FF411640A228DF82C30ADF82E4040230B
:109A20008DF834200F4C8DF83C3001A9304640F2BF
:109A3000075540F209464222ADF80C60ADF83850A7
:109A40008DF84330CDF83F4009F010FE422012B0AF
:109A500070BD002012B070BD200105242402020553
:109A60000705800307058002007EFF280AD010B595
:109A700000F0FAFC044608B1204610BD07F056FF7E
:109A8000204610BD00207047007EFF280ED000B594
:109A900083B00DF1070100F02FFD20B19DF8070004
:109AA00003B05DF804FB4FF0FF30F9E74FF0FF30F3
:109AB000704700BF007EFF280FD000B583B00122A1
:109AC0000DF1070100F0DCFC20B19DF8070003B0A8
:109AD0005DF804FB4FF0FF30F9E74FF0FF307047BF
:109AE000007EFF2801D000F011BD7047007EFF28E6
:109AF00001D000F06BBD0020704700BFF8B50646EE
:109B0000007EFF281CD017465AB10D46144600F0BF
:109B100085FC2946224680B1307E00F03BFD241AA8
:109B200001D13846F8BD054407F000FF307E00F053
:109B300075FC294622460028EED13F1B3846F1E746
:109B40000020F8BD70B50368184A5B6882B0934284
:109B50008DF8071021D10546007EFF2823D000F0A4
:109B60005DFC0DF1070601243146224688B1287EAE
:109B700000F010FD241A02D1012002B070BD06448D
:109B800007F0D4FE287E00F049FC3146224600282A
:109B9000EDD1C4F1010002B070BD01220DF1070149
:109BA000984702B070BD002002B070BDFD9A02005F
:109BB00070B592B01D460C46164601A842220021FF
:109BC00009F07CFD412D5CD9631C0222DBB28DF8CB
:109BD00006408DF80E408DF8264040F6083540F2DC
:109BE00002248DF81E308DF827308DF83130ADF815
:109BF00004508DF807208DF812208DF833208DF851
:109C00003B20ADF80840204A069240F2012505238A
:109C10002424ADF810508DF815308DF8164004232B
:109C20001A4C8DF81F30012540F224628DF81C502B
:109C30008DF830300894ADF82420154D0A9508238E
:109C40004FF411640A228DF82C30ADF82E404023D9
:109C50008DF834200F4C8DF83C3001A9304640F28D
:109C6000075540F209464222ADF80C60ADF8385075
:109C70008DF84330CDF83F4009F0F8FC422012B097
:109C800070BD002012B070BD200105242402020521
:109C90000705800307058002014B1878704700BF55
:109CA00090670020037EFF2B02D1074B1A7802B188
:109CB0007047064902764161012200F11001044813
:109CC0001A7000F043B800BF90670020A46703003B
:109CD00094670020007EFF280ED000B583B000F00E
:109CE0009DFB10B103B05DF804FB019007F01EFE70
:109CF000019803B05DF804FB0020704701B900B182
:109D0000704700B583B0694600F09EFB009BB3F539
:109D1000966F02D003B05DF804FB00F02BFBF9E76F
:109D200030B4084B084AFF2002F108054FF47A745A
:109D30000021303218761D609C601A6130BC596079
:109D40005961704774670020B4670300F8B5054691
:109D5000B0F818016C69B5F81A310A680E46044467
:109D60001B1A176895F81C119BB222463046B8475B
:109D700050B3221894423CD2766806E0052B25D0D9
:109D800023780BB31C44A24233D96378042BF5D15A
:109D9000E378002BF4D195F81C11013185F81C11E2
:109DA000002EEDD095F840110729E9D801F14807B8
:109DB00045F82760217295F84011013185F840116E
:109DC0001E462378002BDDD10020F8BD94F9023027
:109DD000002B08DB95F81E31591C85F81E11A1785F
:109DE0000B43A370CCE795F81D31591C85F81D1164
:109DF000F5E7B5F818216B69104480B2A5F8180191
:109E0000588095F81C211A710120F8BD2DE9F04306
:109E1000284DDFF8B090AC4604468846BCE80F00F9
:109E200089B003AF0FC703AE0FCE05F1140E254660
:109E30000FC59EE80700DCF800303B806B463668B3
:109E40002E8003C36B4603CB1B4EA06104F11803A5
:109E50004FF4807C0125E16184F82020636140F2A9
:109E6000EF2200231548C4F8189140F20947042155
:109E7000A4F81CC1C4F8280184F84011A280C4F8D9
:109E80002C31C4F83031C4F83431C4F83831C4F856
:109E90003C314FF4E131C4E94876094884F81E5159
:109EA000A571FFF7FFFE404600F052FA284609B0C0
:109EB000BDE8F0831C680300E8670300F467030053
:109EC00074670020090000012DE9F04F04468BB0B3
:109ED000002900F09180032900F09C8090F8403127
:109EE0008B4240F2CB80483100F5A27550F82160DA
:109EF0003278002A00F0E78000231946374603E055
:109F00000131725C7718CAB102F14000C0B2012879
:109F1000F6D9F42AF4D8100618D40120A2F558472F
:109F2000B7F5006FECD30144202B00F0C98025F871
:109F30001320725C01337718002AE5D1DBB20133BC
:109F40005B0043F4407304F5A17C5DE002F0E000A7
:109F5000C02800F0A18002F0F000E02800F091801D
:109F600002F0F800F028CBD102F007024FF0040E07
:109F7000787800F0C00CBCF1800FC1D197F802C016
:109F80000CF0C00800F03F00B8F1800F40EA8212E8
:109F9000B6D10CF03F0CBEF1030F4CEA821275D023
:109FA000F87800F0C007802FAAD100F03F0040EA07
:109FB0008212A2F58030B0F5801F38BF4FF0040E3A
:109FC0009ED2A2F55840B0F5006F99D3B2F5803F0C
:109FD0007144A9D31E2BB1DCA2F580325800970A38
:109FE0002844C2F30902A7F52057A2F5105225F81C
:109FF00013704280023384E7D0F82031A0F8443156
:10A0000000F5A17C4FF44173A4F8423160460BB0D7
:10A01000BDE8F08F02A800F0AFF904F5A17C019033
:10A0200020B300F1FF3B5FFA8BF3284F04F1040BE0
:10A030000DF1080A0BEB830BA64606AE97E80F005E
:10A040001AF8018B86E80F0008F00F090AADA94441
:10A0500005EB181819F8109C18F8103CAEF846914A
:10A06000AEF844310EF1040EDE45E7D1019B5B00F2
:10A07000DBB201335B0043F44073C5E74FF0000CE3
:10A08000C4E702F00F024FF0030E71E7A2F5006083
:10A09000B0F5784F95D333E7787800F0C007802F7C
:10A0A00002F01F027FF42CAF00F03F0040EA821262
:10A0B000A2F18000B0F5F06FBFF422AF02202DE7CF
:10A0C00040F242333FE740F202333CE708680300C6
:10A0D0000048704794670020014B5869704700BFE3
:10A0E000946700200A4601460148FFF7EDBE00BF15
:10A0F00094670020024B186800B10069704700BFE8
:10A100001869002030B40848BDF80850046844B10C
:10A11000646934B10846A44611461A462B4630BC41
:10A120006047002030BC70471869002030B40848F0
:10A13000BDF80850046844B1A46934B10846A44687
:10A1400011461A462B4630BC604730BC704700BFF2
:10A150001869002000207047024B186808B190F879
:10A16000500070471C6900202DE9F047244C2568F9
:10A17000002D42D01F4600EBC00305EB83030446CD
:10A18000D3F818A089469046C600BAF1000F30D027
:10A1900050460AF04DF90828024628BF08223444E8
:10A1A00005EB8405D5E90764DFF85CC0154B002E8C
:10A1B00008BF664651464846002C08BF1C4609F0B9
:10A1C00055FA30460AF034F910280246314628BFC5
:10A1D0001022404609F04AFA20460AF029F90428DC
:10A1E00002462146384628BF0422BDE8F04709F060
:10A1F0003DBADFF818A00822D1E7BDE8F08700BF1C
:10A200001C69002058680300486803003C6803008C
:10A21000F8B50B4F3B688BB100EBC00503EB850530
:10A2200004466A69C6001AB190473B6885F82A005F
:10A23000344403EB840393F82A00F8BD1846F8BDB4
:10A240001C690020074B1B685BB100EBC00003EBEF
:10A25000800010B4038D446A0C605DF8044B1380D9
:10A26000704770471C6900200A781E2A01D100201F
:10A27000704710B520221C460521002300F078FF0E
:10A28000204610BD30B4094C029A256855B10446E9
:10A2900004EBC40405EB840408461946A3680BB11B
:10A2A00030BC18474FF0FF3030BC70471C690020AD
:10A2B00030B4094C029A256855B1044604EBC40435
:10A2C00005EB840408461946E3680BB130BC184717
:10A2D0004FF0FF3030BC70471C690020054B1B68F5
:10A2E00033B100EBC00003EB8000036903B11847F2
:10A2F000704700BF1C69002000B5104B402283B09E
:10A3000083F8272303F030FF4FF080430024D3F875
:10A3100038548DF80040684606F0B0FE084B0193B3
:10A3200001A806F0D7FE06F0E1FEEB0702D401F02B
:10A3300009FFFCE7204603F053FDF8E700E100E0E9
:10A3400045A3020003F04CBD002003F029BA00BF72
:10A3500000B5002383B00322CDE90023034904485C
:10A36000C82205F067FB03B05DF804FB5C680300DE
:10A37000F9A2020007F08ABD4FF08052536E1BBA5B
:10A380000360136E1BBA4360082070470048704793
:10A390006468030070B51F4D2B68B3B199B9147888
:10A3A000C4F34114012C0BD0022C07D15478012C9A
:10A3B0000DD0022C07D19388072B21D0084670BD01
:10A3C000517822290CD0012070BD184670BDDC697F
:10A3D000F4B1237811462246BDE8704002F070BE09
:10A3E0005188003918BF01211976114602F04EFE3E
:10A3F0002A68136A002BE6D0107E9847204670BD6D
:10A40000054C114623892246BDE8704002F058BE33
:10A41000204670BD206900200C60002010B5044665
:10A4200001F0ECFD08B9002010BD01F0EFFD00289F
:10A43000F9D104484FF45A7303FB0400007900F08B
:10A44000010010BD24690020064B4FF45A7202FB34
:10A45000003050F8063F0B60838882798A718B80C8
:10A46000704700BF2469002008B5044B4FF45A72AE
:10A4700002FB0030103001F025FC08BD24690020EB
:10A480002DE9F0414FF45A7505FB00F5194F05F120
:10A4900010043C4492B2204601F040FC064620469F
:10A4A00001F02AFC3F2802D83046BDE8F08107EBD6
:10A4B0000508002098F8031002F01EFD0028F3D0D4
:10A4C000204601F019FC3F280BD905F53A7298F89F
:10A4D00003103A444023002002F072FD3046BDE8EC
:10A4E000F08198F80310002002F03EFD3046BDE8F0
:10A4F000F08100BF24690020034B4FF45A7202FB25
:10A500000030103001F07CBC246900202DE9F041BE
:10A51000044601F073FD10B90020BDE8F08101F0A0
:10A5200075FD06460028F7D14FF45A71DFF86080B8
:10A5300001FB04F404F12C054544284601F0C2FB5C
:10A540000028E9D008EB04073046B97802F0D4FCC3
:10A550000028E1D004F54A744444284621464022AC
:10A5600001F0DCFB054660B1B978224630462B4647
:10A5700002F026FD40B9054B1B68DB07CCD500BEB9
:10A58000CBE7B97802F0F0FC2846C6E7F0ED00E032
:10A590002469002038B50C4B4FF45A7404FB003486
:10A5A0002C3492B20546204601F06AFC0346204650
:10A5B0001C4601F087FB3F2801D8204638BD2846BD
:10A5C000FFF7A4FF204638BD2469002008B5044BDE
:10A5D0004FF45A7202FB00302C3001F08DFB08BDA5
:10A5E00024690020F0B51C4C83B000214FF45A724E
:10A5F000204601250E4609F061F8FF234FF4424240
:10A6000004F148016371E2802B460827009604F1AB
:10A6100010004FF4807227732581668101F016FBCC
:10A620002B464FF4807204F5A471009504F12C00C0
:10A6300001F00CFB04F51271284604F0A1FC04F5AE
:10A64000267103462846C4E9096304F099FCC4E96D
:10A65000100603B0F0BD00BF2469002010B5094BFF
:10A66000002203F12C0403F110001A601A7101F0AA
:10A670007DFC204601F07AFC20460121BDE8104017
:10A6800001F09CBC246900202DE9F0414B79022B9C
:10A6900082B002D18B79022B04D00025284602B06B
:10A6A000BDE8F081314FBB782BB1314B1B68DB0724
:10A6B000F3D500BEF1E78B783B700C780C4406466E
:10A6C000617824294FF009050BD1082A02D80FE040
:10A6D000AA420DD323781C442B44617824299DB2CF
:10A6E000F6D005291BD0042902D163790A2B28D082
:10A6F000204801F001FB3F28D0D9F978002002F072
:10A70000FBFB0028CAD01B4801F0F6FA3F28F97875
:10A7100013D9194A4023002002F052FCBEE721461B
:10A72000304602F0C9FB0028BFD0A3787B702378A5
:10A730001C442B4461789DB2D5E7002002F014FC44
:10A74000ACE70E4A94F80080019202230132009295
:10A75000304604EB08011A4602F03AFB0028A4D068
:10A7600005F10E0318FA83F39DB2C1E724690020B6
:10A77000F0ED00E0346900200C6C00202669002018
:10A7800038B5137803F06003202B0CD1264C938846
:10A7900025789D4207D15378203B032B03D8DFE86F
:10A7A00003F009151E04002038BD71B3022931D011
:10A7B000012038BD61B10229FAD11C4B002BF7D022
:10A7C0001B490020AFF30080012038BD0029EFD1E4
:10A7D00011460723164A02F073FC012038BDA1B1CF
:10A7E0000229E5D15588257105F00104114884F04E
:10A7F000010101F0E3FB104B002BD9D0C5F340025F
:10A8000021460020FFF77AFAD2E7114602F03EFC1B
:10A81000012038BD094B002BCAD051880020AFF36E
:10A820000080012038BD00BF246900200000000026
:10A830002A69002050690020FD9C020000000000F1
:10A840002DE9F047574DEA788A420C4607461E46E6
:10A850005CD19AB205F53A7105F1100001F010FBD8
:10A86000514BD3B16B79FF2B17D0B6B105F2E72866
:10A8700008EB060AA8F2D72902E0D0450DD06B7983
:10A8800018F8012F9A42F8D1484601F02BFA002817
:10A89000F3D16979AFF30080EFE7444B23B144482B
:10A8A00001F020FA002870D0414801F025FA3F2835
:10A8B00005D9E978002002F01FFB002858D1AB78B9
:10A8C0009C4203D001242046BDE8F087394B13B1E8
:10A8D0000020AFF3008001F091FB20BB364801F06F
:10A8E000F1F90028EED1002EECD016F03F06E9D1A8
:10A8F000A978384602F000FB04460028E2D0A97887
:10A9000038463346324602F05BFBDCE7AB788B42DD
:10A91000DCD02A4B1C6814F00104D4D000BE002403
:10A920002046BDE8F08701F071FB04460028D5D130
:10A93000214801F0C7F90028D0D0A978204602F0BC
:10A94000DBFA0028CAD01E494022A1F53F7001F071
:10A95000E5F9034608B31A4AA978204602F030FB0D
:10A960000028AFD1154B1B68DB07B7D500BEB5E794
:10A970000F4801F0C1F93F280AD94023114AE9786C
:10A98000002002F01DFBAB789AE7AFF300808BE765
:10A99000E978002002F0E8FA91E7A97802F0E4FAF9
:10A9A0009CE700BF246900200000000000000000B8
:10A9B000346900200000000050690020F0ED00E044
:10A9C0004C6C00200C6C002002488C22002108F006
:10A9D00075BE00BF8C6C002002488C22002108F05C
:10A9E0006DBE00BF8C6C00202DE9F0414B79032B2C
:10A9F00082B011D10F79C7EBC7051235ADB29542C0
:10AA00000C4604D8DFF89C8098F8011049B1234B1C
:10AA10001B68DA0700D500BE0025284602B0BDE855
:10AA2000F08194F800C004EB0C0292F801E0BEF152
:10AA3000210FECD1C8F8882014F80C1008F1010E91
:10AA400008F1020C1144CDE900CE3A46064602F068
:10AA5000BFF90028DBD0A37998F80210012B04BFBE
:10AA6000E37988F803300122D8F8883088F8042088
:10AA7000A278B3F8073088F80020A8F8063000293B
:10AA8000CBD0074A3046402302F09AFA0028C4D1BE
:10AA9000024B1B68DB07C0D500BEBEE7F0ED00E04F
:10AAA000D46C00208C6C0020F0B51446127802F0B3
:10AAB0001F05012D83B00FD10B467149A78891F86E
:10AAC00000C0FFB2BC4507D112F06002064606D1B5
:10AAD00083BB6278062A30D0002003B0F0BD202A64
:10AAE000FAD16278013A0A2AF6D801A050F822F089
:10AAF000C5AB0200B1AB02009DAB0200D9AA0200B7
:10AB0000D9AA0200D9AA0200D9AA0200D9AA020031
:10AB100085AB02005FAB02001DAB020063B3022BEA
:10AB200008D16388574ADBB20B711AB1194600206D
:10AB3000AFF30080012003B0F0BD6288120A212A21
:10AB400065D0222AC8D11846FFF7D4FA4C490246EC
:10AB5000CB883046214602F0B3FA2846BDE7002BE9
:10AB6000E8D162884848120A4A7128B1114618464D
:10AB7000AFF300800028AFD02146304602F086FABD
:10AB80000120AAE7002B4ED1E388402BA4D83F4AEE
:10AB90002146304602F094FA01209EE7002BC9D1ED
:10ABA0003B4A21463046012302F08AFA012094E70D
:10ABB000002BBFD1374A21463046012302F080FAEC
:10ABC00001208AE7002BB5D1E5886088402D4FEA47
:10ABD00010222F4628BF402710F0FF003ED0012D45
:10ABE00046D9013F08722C49BFB201250B46009798
:10ABF00001460020FFF786FA2B189BB28BBB274A31
:10AC00001268D2077FF568AF00BE184665E7D1F835
:10AC10008820002A3FF460AF1378214603B0BDE8D6
:10AC2000F04002F04DBA022B84D1E5886388402DB4
:10AC30002C4628BF402413F0FF004FEA132205D012
:10AC4000012D03D991F84830834214D00F4B009462
:10AC500001460020FFF76AFA01203EE710491D4631
:10AC6000C4E70F4A2146304602F02AFA012034E7B1
:10AC70000B491D46BAE7013C0A4BA4B2E7E700BF07
:10AC80008C6C00200000000000000000D46C00204C
:10AC9000906C0020916C0020956C0020F0ED00E09D
:10ACA000946C0020D56C002030B51C4CA2788A42F0
:10ACB00083B00CD16178914217D1194A22B1194958
:10ACC000DAB20020AFF30080012003B030BD62781B
:10ACD0008A42F2D0144B1B68DB0703D500BE00206C
:10ACE00003B030BD002003B030BD00229BB211463E
:10ACF00005460093104604F14803FFF717FAA178C0
:10AD00002846402304F1480202F05AF90028DBD11A
:10AD1000054B1B68DA07E5D500BED6E78C6C002032
:10AD200000000000946C0020F0ED00E070B500F130
:10AD30002C050446284600F0C5FF08B9002070BD68
:10AD40006178002002F0D8F80028F7D004F50A76E0
:10AD500028463146402200F0E1FF054660B1034637
:10AD600061783246002002F02BF940B9054B1B6890
:10AD7000DB07E3D500BE70BD617802F0F5F8284628
:10AD800070BD00BFF0ED00E030B5164C83B000217F
:10AD90000D464FF41A72204608F090FC04F1480169
:10ADA00004F1100000950123802200F04FFF802263
:10ADB00004F1C8010123009504F12C0000F046FFC6
:10ADC00004F5A471012004F0DBF804F5CC7103460E
:10ADD0000120C4E9095304F0D3F8C4E9100503B015
:10ADE00030BD00BF8082002010B5084C002304F164
:10ADF0001000C4E90033C4E9023301F0B7F804F1EC
:10AE00002C00BDE8104001F0B1B800BF80820020E6
:10AE10002DE9F0434B79012B83B002D18B79012BC3
:10AE200004D00025284603B0BDE8F083CB79002B81
:10AE3000F7D10B78CC1806466578242D99B20BD142
:10AE4000914202D9EDE78A42EBD323781C440B44AC
:10AE50006578242D99B2F6D0042DE2D16379012BC7
:10AE6000DFD1A379032BDCD1E579002DD9D1DFF82F
:10AE7000CC8098F8010098F8023050EA030905D018
:10AE80002B4B1B68DB07CCD500BECBE7A37888F83B
:10AE9000003027782079CB199DB2274430B922E0C1
:10AEA0003B7881451D44ADB21F441CD2AA421AD33F
:10AEB0007B78052BF4D139463046019201F0FCFF36
:10AEC000019A68B3BB782079D90914BF88F801309A
:10AED00088F80230397809F101030D445FFA83F9EB
:10AEE000ADB20F44DCE7134800F006FF3F2899D9C4
:10AEF00098F80210002001F0FFFF002892D00D48C2
:10AF000000F0FAFE3F2898F8021005D90A4A4023BB
:10AF1000002002F055F885E7002002F025F881E7CF
:10AF2000034B1B68DA077FF57CAF00BE054679E767
:10AF3000F0ED00E0908200206884002080820020F4
:10AF400000207047F8B52D4DAA788A421E4619D1C7
:10AF50009AB205F5F47105F1100000F091FF284B4D
:10AF600013B10020AFF30080264800F0C5FE3F2853
:10AF700005D9A978002001F0BFFF044668BB012471
:10AF80002046F8BD6B788B4208D01F4B1C6814F02C
:10AF90000104F5D000BE00242046F8BD074628462F
:10AFA000FFF7C4FE0028EAD105F12C0000F08AFE6C
:10AFB0000028E4D1002EE2D016F03F06DFD16978F8
:10AFC000384601F099FF04460028D8D06978384601
:10AFD0003346324601F0F4FFD2E70A4800F08CFE17
:10AFE0003F28A97805D9094A4023002001F0E8FF4D
:10AFF000C6E7002001F0B8FFC2E700BF8082002052
:10B000000000000090820020F0ED00E06884002045
:10B0100070B52E4CE28AA36852BA92B282B005464D
:10B0200012B1B3FBF2F292B2A06BD4F81110B0FBE4
:10B03000F2F61B1AB3F5007F28BF4FF4007309BA6C
:10B04000009302FB1602224B607B3144FFF71AF992
:10B05000031E13DB09D094F82E101D4A9BB228461C
:10B0600001F0AEFF58B302B070BD94F82E100093FB
:10B0700028461A4601F078FE02B070BDA268A36BA4
:10B0800043F203300021D31AA08784F83E10012038
:10B090000221A36284F82C0084F83010002AE2D048
:10B0A000002BE0D0237BDB0914BF94F82E1094F81A
:10B0B0002F10284602B0BDE8704001F0BDBF054B1F
:10B0C0001B68DB07CFD500BECDE700BF186F00209F
:10B0D000186D0020F0ED00E038B5214B214C0546FD
:10B0E0001BB1607BAFF30080B0B1A06BA36894F894
:10B0F0002F101D4A1B1AB3F5007F28BF4FF40073B1
:10B1000028469BB201F05CFF00B138BD174B1B68AD
:10B11000DB07FAD500BE38BDA26BA16884F83E00FB
:10B120008B1A42F207720120A2870222A36284F8DE
:10B130002C0084F830200029E7D0002BE5D0237BB9
:10B14000DB0906D094F82E102846BDE8384001F0FF
:10B1500073BF94F82F102846BDE8384001F06CBF4B
:10B1600000000000186F0020186D0020F0ED00E0D6
:10B17000044880F83C1080F83D2080F83E300120E3
:10B18000704700BF186F002002484022002108F0DD
:10B1900095BA00BF186F002002484022002108F035
:10B1A0008DBA00BF186F00204B79082B01D000200A
:10B1B00070478B79062BFAD1CB79502BF7D1162A11
:10B1C00006D81C4B1B68D907F1D500BE002070477C
:10B1D00070B5194D8B7885F82D300B7882B005F15C
:10B1E0002F0205F12E0619440223CDE900261A4646
:10B1F000044601F0EDFD30B90E4A1268D2070FD5B2
:10B2000000BE02B070BD204695F82F1000241F2309
:10B210002A4685F8304001F0D3FE20B11720F0E730
:10B22000002002B070BD034B1B68DB07F6D500BEE3
:10B230001720E6E7F0ED00E0186F0020002961D14B
:10B2400070B5137803F07F05022D84B0044620D03A
:10B2500003F06003202B02D0002004B070BD5378AF
:10B26000FE2B34D0FF2BF7D15388002BF4D1D68896
:10B27000B3B2002BF0D13B4D11462046AE87C5E955
:10B280000D3385F8303085F83E3001F0FFFE0120A7
:10B29000E3E75578012DDBD15388002BDCD1314E0B
:10B2A000938896F83020042ADBB243D096F82E100B
:10B2B000994229D096F82F509D4205D122B92946AE
:10B2C00001F0ACFE00283AD0012004B070BD5388D4
:10B2D000002BC1D1D0880128BED1234B8DF80F009F
:10B2E0002BB10192FEF738FF019A0028B4D0451E19
:10B2F0001146204601230DF10F028DF80F5001F089
:10B30000DFFEE1E701207047022ADDD1B26BB368AE
:10B310009B1A0324B36206F120020D2386F8304005
:10B3200001F04EFE0028CFD1104B1B68DB0793D5F0
:10B3300000BE92E7194601F07FFE28468DE72946B8
:10B34000204601F095FE0028BED1002386F830305B
:10B3500096F82F10034A20461F2301F031FE0028E3
:10B36000B2D1E1E7186F002059A10200F0ED00E032
:10B37000F0B5A74C94F83050012D8FB01E4607460B
:10B380006FD0032D46D02DB1022D00F08980012011
:10B390000FB0F0BD94F82F308B42F8D11F2E40F043
:10B3A0009E809C4B22689A4240F09980E37B9A4AA7
:10B3B0006068A56284F82C50A5632262A56860626B
:10B3C0000122282B84F83020656300F0DA802A2BD4
:10B3D00000F09F82002D00F02981227BD20940F0ED
:10B3E0002581B5F5007F40F2F78294F83C30A562E4
:10B3F0000120022284F82C0084F8302023B942F284
:10B40000050284F83E30A287384601F015FE94F814
:10B410003050B9E794F82E308B42B8D10D2EB6D10A
:10B42000E37B282B00F06D822A2B00F062827B4B9D
:10B4300023B1607B04F10F01AFF30080002084F89A
:10B440003000734A94F82F101F23384601F0B8FDDE
:10B450000028DCD1724B1B68DA0700F190800020D5
:10B4600096E7E37B282B12D02A2B59D0A36B227BA3
:10B470003344D209A36347D0626B9A420DD9684B1B
:10B480001B68DB07C3D500BE94F830507CE7D4E9D5
:10B490000D2333449342A3636CD3022384F83030EA
:10B4A00094F82E10384601F0E3FD00287FF46FAFCA
:10B4B000A368A26B934202D9217BC9091ED19B1AB2
:10B4C0000325A36294F82E10564A84F8305038466B
:10B4D0000D2301F075FD00287FF459AFBAE704236E
:10B4E00094F82E1084F83030384601F0A5FD384627
:10B4F00094F82F1001F0A0FD002049E794F82E10D9
:10B50000384601F099FD42E7A38E474A607B04F17B
:10B510000F01FEF7A9FE0028C0F2C981A36BABE7BB
:10B52000E08A40BA80B218B1A368B3FBF0F080B2F1
:10B53000D4F81110A26B3C4DB2FBF0F309BA00FB3A
:10B5400013221944607B00962B46FEF7B1FE0028BB
:10B55000C0F20A82864252D9002840F0338200238A
:10B5600094F82F1000933246384601F0FDFB94F812
:10B57000305009E7FFF74CFD94F8305004E700BE67
:10B5800006E7E28A52BA92B29DB9002A85D094F8B1
:10B590003C300222002184F82C2084F83020A16263
:10B5A000002B7FF47DAF42F2050284F83E30A28783
:10B5B00076E7207BC0090BD0002A00F0EE8195428F
:10B5C000C0F02282282B3846D4D0FFF785FD1EE735
:10B5D00094F83C20A562022384F82C3084F83030A3
:10B5E000002A7FF411AF42F205020023A28784F8FB
:10B5F0003E30207BC00900283FF406AF9DE1D4E92E
:10B600000D2333449342A363BFF447AF3846DCE7CE
:10B61000186F002055534243555342530000000019
:10B62000F0ED00E0386F0020186D0020607B252BC6
:10B6300027D8DFE813F03701260026000A0126008C
:10B6400026002600260026002600260026002600CA
:10B6500026002600260026002600E90026002600F7
:10B6600026002600260026002600CF00B500260072
:10B670002600260026002600260026007B00260045
:10B68000520094F83C30002B3AD1B04AB049ABB2EA
:10B69000FEF7EAFD002833DB40F0C981A368002BE8
:10B6A0003FF4FBAEA16B94F83C205B1A0120022111
:10B6B000A36284F82C0084F8301022B942F205010C
:10B6C00084F83E20A187002B3FF4EAAE237BDB0900
:10B6D00040F0338194F82F1096E604AA05A9FEF7EE
:10B6E000B1FD059B23B1BDF81020002A40F09681E2
:10B6F00094F83C3023B940F2024284F83E30A287ED
:10B70000A268A36B94F83C100120D31A84F82C0093
:10B710000220A36284F8300021B942F2050084F8C7
:10B720003E10A087002A3FF4BBAECCE705AD002356
:10B730000DF10E0204A96B600593AB60FEF782FD6C
:10B74000049A002AD4D0BDF80E30002BD0D012BA03
:10B750005BBA08200221ADF81E3006928DF8170062
:10B760008DF81C1095E80700784BA56883E8070062
:10B770000C20002D40F03981A36B94F83C205B42F3
:10B780000121A362022384F82C1084F83030002AAF
:10B790007FF486AE42F2050384F83E50A3877FE62D
:10B7A0006C4B002B3FF47AAFE17CC1F3400301F016
:10B7B00001020909AFF3008000287FF46FAF94F80D
:10B7C0003C30002B9CD140F202420023A28784F837
:10B7D0003E3095E7059B604A03F4000343F0030302
:10B7E0000593002A00F01881AFF300809DF8163011
:10B7F000564AA56880F0010060F3C7138DF8163033
:10B80000059B13600420B4E74FF020330022CDE9FC
:10B810000A33524D069207A909AA08930793099380
:10B820000D930C9305AE0DAB0595FEF79DFC0FCE69
:10B83000DFF818C1A568ACE80F000FCEACE80F0028
:10B840003368CCF80030242093E794F83C2094F837
:10B850003D0094F83E10DFF8F4C04FF0000E4FF0BA
:10B860000003CDE905EECDE907EE62F303038DF8A1
:10B870001630F0220A23ADF824E08DF820008DF870
:10B8800021108DF814208DF81B3005AE0FCEACE8DA
:10B890000F003368A4F83CE084F83EE0ACF80030D8
:10B8A000122066E7FEF7B4FC002888D0F6E6A2680E
:10B8B000A36B94F83C0084F82C50D11A0225A162A5
:10B8C00084F8305020B942F2050584F83E00A5877F
:10B8D000002A3FF4D1AD00293FF4CEAD237BDB0934
:10B8E00000F0948094F82E10384601F0A5FBA36B6D
:10B8F000C2E51B4B002B3FF4A1AD607BFEF7EEFCD5
:10B900009CE5184B002B3FF499AD607BAFF30080B2
:10B9100094E5E28A52BA92B2002D3FF436AE207B13
:10B92000C0093FF449AE94F83C30A562022284F885
:10B930002C2084F83020002B7BD094F82E10384631
:10B9400001F07AFB94F830501EE500BF186D00201E
:10B95000276F0020000000000000000000800202AD
:10B96000DDA2020000000000A36BA2683344D11ADC
:10B9700043F20330A3630023A08784F83E30012004
:10B980000223A16284F82C0084F83030002A3FF4AE
:10B9900087AD00293FF484AD98E6012294F83C304D
:10B9A00084F82C200222A56284F83020002B7FF43A
:10B9B00022AE42F2050284F83E30A287002D3FF409
:10B9C0006FAD16E6A36B361A034429183246284693
:10B9D000A36307F059FEC2E5194AABB2384601F03D
:10B9E000EFFA00287FF413AD34E5A84228BF2846BB
:10B9F00083B26063124A94F82E10384601F0E0FAE0
:10BA000000287FF404AD25E50222C7E794F82F1043
:10BA1000384601F011FB81E50120E7E60849A568F9
:10BA2000013B1BBA12BAC1E900320820A1E6A568A1
:10BA30009FE642F2050284F83E30A287D9E500BFB6
:10BA4000186D002030B5154C83B000210D464FF421
:10BA5000EE72204607F032FE04F13C01201D0095F5
:10BA60000123402200F0F2F8402204F17C0101237E
:10BA7000009504F1200000F0E9F804F1BC01012078
:10BA800003F07EFA04F5867103460120C4E90653EB
:10BA900003F076FAC4E90D0503B030BD586F0020FD
:10BAA00010B5064C2046002340F8043B00F05EFA37
:10BAB00004F12000BDE8104000F058BA586F002093
:10BAC0004B79FF2B01D0002070472DE9F041324C1B
:10BAD0006678A378334382B003D0002002B0BDE87B
